:020000040000FA
:100000000A128A11D02F831603131815193099007C
:1000100018128312031398178316031307178717F1
:1000200098160800F100F0013A30710203181928FF
:100030001A28222830307102031C1F282028222869
:10004000F001F00A700C0800031083120313400D36
:10005000410DC2004208C8004808031D302831285D
:100060003A280030C1000030C0000030BF0000302E
:10007000BE009F283E08C2003F08C3004008C400DD
:100080004108C5001F300310C50CC40CC30CC20CC2
:10009000FF3E031D43284208C6004608C700C0179C
:1000A000FF30BE05FF30BF05FF30C0050030C10581
:1000B0009630C802C81F5D285E2878284808803A14
:1000C000973E0318642865286628312801300310FC
:1000D000C10CC00CBF0CBE0CFF3E031D67280130D5
:1000E000C2004208C807031D7628772866288F2893
:1000F00020304802031C7D287E288A2831280130C0
:10010000C2000310BE0DBF0DC00DC10DC20B812872
:100110000130C8024808031D8E288F287F28470811
:100120000319932894289F28BE09BF09C009C10953
:10013000BE0A0319BF0A0319C00A0319C10A08003D
:100140000310720D730DF800780883120313A500D5
:100150002508031DAC28AD28B6280030F300003078
:10016000F2000030F1000030F0005D290310760D40
:10017000770DF8007808A4002408031DC028C128C2
:10018000C228AD28F217FF30F005FF30F105FF302F
:10019000F2050030F305F617FF30F405FF30F505E2
:1001A000FF30F6050030F7050030A3000030A20054
:1001B0000030A1000030A0007F30A502A03024074D
:1001C000F8007808A5022030F8007808A400013073
:1001D000F8000310A00DA10DA20DA30DF80BE92846
:1001E00077087302031DFE2876087202031DFE289D
:1001F00075087102031DFE2874087002031C012992
:10020000022911297408F0027508031C750FF10208
:100210007608031C760FF2027708031C770FF302AF
:1002200020140130F8000310F00DF10DF20DF30D64
:10023000F80B13290130A402031D1F292029E728E8
:10024000A51F232924293E292508803A9F3E03180B
:100250002A292B292C29AD2801300310A30CA20C2C
:10026000A10CA00CFF3E031D2D290130F8007808D9
:10027000A507031D3C293D292C295529203025029D
:10028000031C432944295029AD280130F8000310EC
:10029000A00DA10DA20DA30DF80B47290130A50259
:1002A0002508031D5429552945292308F300220850
:1002B000F2002108F1002008F0000800A3308316A6
:1002C0000313A7002708B000B72F253043060319F2
:1002D0006A296B297B294308A7002008840083171B
:1002E000211C8313270880000130A0070318A10AEE
:1002F0000030A107B72FB101B201220884000A160D
:100300008A1500200A128A112E3A031D882989298C
:10031000CE2932170130A7002708A207BD01BE0170
:10032000BD290A30F0000030F100831603133E08A7
:10033000F3003D08F2000A168A151A240A128A11DF
:10034000710883160313BE007008BD0022088400E4
:100350000A168A1500200A128A11D03EA700FF3023
:1003600003180030A8002708BD070318BE0A280894
:10037000BE070130A7002708A207220884000A163A
:100380008A1500200A128A110A128A1112200A12F2
:100390008A110318CC29CD299129D429BD01BE0188
:1003A0003216D4293215F029013083160313A2071F
:1003B000FF30220784000A168A1500200A128A11CB
:1003C000C300A700A8012808003A0319E829B72F9D
:1003D0002708003A0319C92F663A0319D229B72F03
:1003E00000303105A70007303205A800270828048F
:1003F0000319FB29FC29702F321EFF29002A042A29
:100400000630BD000030BE003008840083130008B1
:10041000BF00840A0008C000840A0008C100840AE2
:100420000008C2000430A7002708B0074208F30004
:100430004108F2004008F1003F08F0000030F700EA
:100440000030F6000030F5000030F4000A168A157E
:10045000A4260A128A1103182E2A2F2A4C2A831640
:1004600003134208F3004108F2004008F1003F087E
:10047000F0000A128A1503200A128A1173088316E3
:100480000313C2007208C1007108C0007008BF00E9
:100490000330B1040030B20483160313B701B8016E
:1004A0004208F3004108F2004008F1003F08F00064
:1004B0000030F7000030F6000030F5000030F400A6
:1004C0000A168A1543250A128A110318682A692A0E
:1004D000592B031083160313410D420D823EB700C2
:1004E000FF3003180030B800FF30B7070318B80A10
:1004F000FF30B8070330F0000030F1003808F30097
:100500003708F2000A168A151A240A128A1171088D
:1005100083160313B8007008B7000A30F7000030E4
:10052000F8003808FA003708F9000A128A151A206C
:100530000A128A11780883160313B8007708B700E7
:10054000B81FA32AA42AAA2AFF30B7070318B80A9B
:10055000FF30B8073703FF3A0A128A1540210A1202
:100560008A1183120313410883160313BC008312FC
:100570000313400883160313BB00831203133F08C1
:1005800083160313BA00831203133E088316031362
:10059000B900420883120313A7008316031341080E
:1005A00083120313A6008316031340088312031358
:1005B000A500831603133F0883120313A4008316B8
:1005C00003133C0883120313AB00831603133B0889
:1005D00083120313AA00831603133A08831203132A
:1005E000A90083160313390883120313A8000A1203
:1005F0008A159F240A128A1183120313270883166F
:100600000313BC0083120313260883160313BB00D5
:1006100083120313250883160313BA0083120313EE
:10062000240883160313B9003C08F3003B08F200CA
:100630003A08F1003908F0003F30F7008030F6004A
:100640000030F5000030F4000A168A15A4260A12BC
:100650008A1103182C2B2D2B362BFF3083160313F6
:10066000B7070318B80AFF30B807592B83160313CE
:100670003C08F3003B08F2003A08F1003908F000AA
:100680004130F7002030F6000030F5000030F40073
:100690000A168A15A4260A128A11031C502B512B04
:1006A000592B013083160313B7070318B80A00301B
:1006B000B807831603133E08803AFF0080307F029C
:1006C000031D642B0D303D020318672B682BAF2BE5
:1006D000831603133D080A168A116D230A128A1124
:1006E000831203134108D5004008D4003F08D3000B
:1006F0003E08D20083160313420883120313D90065
:1007000083160313410883120313D80083160313BF
:10071000400883120313D700831603133F08831284
:100720000313D6000A168A1178250A128A11831239
:100730000313550883160313C200831203135408CE
:1007400083160313C1008312031353088316031384
:10075000C00083120313520883160313BF008316CD
:1007600003133808803AFF0080307F02031DBA2B44
:100770000A3037020318BD2BBE2B0F2C8316031330
:100780004208F3004108F2004008F1003F08F00081
:100790000030F7000030F6000030F5000030F400C3
:1007A0000A168A1543250A128A110318D82BD92B49
:1007B000812C83160313420883120313C10083168E
:1007C0000313410883120313C00083160313400868
:1007D00083120313BF00831603133F08831203130E
:1007E000BE000A128A1124200A128A1183120313EE
:1007F000410840043F043E04031DFF2B002C812CC4
:10080000831603133808803AFF0080307F02031DEF
:100810000B2C02303702031C0E2C0F2C812C83165C
:1008200003133C08F3003B08F2003A08F1003908D2
:10083000F0004030F7008930F6007030F5005F308E
:10084000F4000A168A15A4260A128A110318292C04
:100850002A2C332CF73083160313B7070318B80A72
:10086000FF30B8073B2CF83083160313B707031883
:10087000B80AFF30B80737080A128A1540210A1251
:100880008A1183120313410883160313BC008312D9
:100890000313400883160313BB00831203133F089E
:1008A00083160313BA00831203133E08831603133F
:1008B000B9004208F3004108F2004008F1003F0887
:1008C000F0003C08F7003B08F6003A08F50039084C
:1008D000F4000A128A11A0200A128A1173088316E2
:1008E0000313B6007208B5007108B4007008B300B5
:1008F0000030C2000030C1000030C0000030BF0036
:10090000052D83160313420883120313C1008316B7
:100910000313410883120313C00083160313400816
:1009200083120313BF00831603133F0883120313BC
:10093000BE000A128A1124200A128A11831203139C
:10094000410883160313B60083120313400883166D
:100950000313B500831203133F0883160313B40077
:10096000831203133E0883160313B3003608F30003
:100970003508F2003408F1003308F00000300A16A0
:100980008A1546270A128A11730883120313E90095
:100990007208E8007108E7007008E6008316031388
:1009A000420883120313ED008316031341088312D8
:1009B0000313EC0083160313400883120313EB00A8
:1009C000831603133F0883120313EA000A168A15DD
:1009D000F6230A128A11831203136908831603137C
:1009E000C20083120313680883160313C100831225
:1009F0000313670883160313C000831203136608EA
:100A000083160313BF00B701B801C301C30A43082B
:100A1000A70001300310A70DFF3E031D0A2D031090
:100A2000270D693E84000A168A1500200A128A11D1
:100A3000A8000A168A1500200A128A11A9000A16AF
:100A40008A1500200A128A11AA000A168A150020A7
:100A50000A128A11AB002B083602031D392D2A0811
:100A60003502031D392D29083402031D392D2808AC
:100A7000330203183C2D3D2D3E2D482D0130A7009B
:100A80002708C3070A304306031D472D482D072DAD
:100A900003303105A70000303205A80027082804DC
:100AA0000319532D542DC92D2D30A7002008840083
:100AB0008317211C8313270880000130A007031827
:100AC000A10A0030A107C92D4308A7000130031077
:100AD000A70DFF3E031D672D0310270D693E8400FF
:100AE0000A168A1500200A128A11F0000A168A15C1
:100AF00000200A128A11F1000A168A1500200A1233
:100B00008A11F2000A168A1500200A128A11F300CF
:100B10003608F7003508F6003408F5003308F4000D
:100B20000A168A153E260A128A11730883160313C1
:100B3000BC007208BB007108BA007008B900003030
:100B4000F3000030F2000030F1000A30F0003C0801
:100B5000F7003B08F6003A08F5003908F4000A16D9
:100B60008A1591250A128A11730883160313BC0093
:100B70007208BB007108BA007008B9003908303E2D
:100B8000A700200884008317211C831327088000F6
:100B90005D2D0130C302430A031DCF2DD02D642DDE
:100BA000E82D303083160313A70020088400831734
:100BB000211C8313270880000130A0070318A10A15
:100BC0000030A107FF30B7070318B80AFF30B80795
:100BD0003808803AFF0080307F02031DF12D01307C
:100BE00037020318F42DF52DD12D831603133E087B
:100BF000803AFF0080307F02031D002E09303D0245
:100C0000031C032E042E0B2E083083160313A7009B
:100C10002708C300112E831603133D08A7002708D9
:100C2000C3004308A700A8012708BD022808031C29
:100C3000BE03BE02430803191E2E1F2E2E2E2E3079
:100C4000A700200884008317211C83132708800035
:100C50000130A0070318A10A0030A10743080A12B7
:100C60008A1540210A128A11831203134108831640
:100C70000313AF0083120313400883160313AE005F
:100C8000831203133F0883160313AD00831203136B
:100C90003E0883160313AC002F0883120313AB0026
:100CA000831603132E0883120313AA00831603135B
:100CB0002D0883120313A900831603132C08831233
:100CC0000313A80083160313420883120313A7001B
:100CD00083160313410883120313A600831603131C
:100CE000400883120313A500831603133F088312E1
:100CF0000313A4000A128A159F240A128A11831270
:100D000003132708C1002608C0002508BF002408D7
:100D1000BE000A128A1124200A128A1183120313B8
:100D2000410883160313B600831203134008831689
:100D30000313B500831203133F0883160313B40093
:100D4000831203133E0883160313B3004C2F43088A
:100D5000A70001300310A70DFF3E031DAA2E0310AC
:100D6000270D693E84000A168A1500200A128A118E
:100D7000F0000A168A1500200A128A11F1000A16DC
:100D80008A1500200A128A11F2000A168A1500201C
:100D90000A128A11F3003608F7003508F600340805
:100DA000F5003308F4000A168A153E260A128A1145
:100DB000730883160313BC007208BB007108BA00E5
:100DC0007008B9000030F3000030F2000030F1008C
:100DD0000A30F0003C08F7003B08F6003A08F5003E
:100DE0003908F4000A168A1591250A128A11730827
:100DF00083160313BC007208BB007108BA007008A8
:100E0000B9003908303EA700200884008317211C50
:100E10008313270880000130A0070318A10A0030BF
:100E2000A1074308A70001300310A70DFF3E031DD3
:100E3000142F0310270D693E84000A168A1500201E
:100E40000A128A11F0000A168A1500200A128A1165
:100E5000F1000A168A1500200A128A11F2000A16F9
:100E60008A1500200A128A11F3003608F7003508A7
:100E7000F6003408F5003308F4000A168A159125A7
:100E80000A128A11730883160313B6007208B5009C
:100E90007108B4007008B3000130C302430A031D97
:100EA000522F532FA72E692F3030A700200884001F
:100EB0008317211C8313270880000130A007031823
:100EC000A10A0030A107FF30BD070318BE0AFF309A
:100ED000BE073D083E04031D6E2F6F2F542FB72F02
:100EE0003D083E04031D752F762F842F36083504E8
:100EF00034043304031D7D2F7E2F842F0130BD0762
:100F00000318BE0A0030BE073E08803A803C031D2D
:100F10008B2F3D08430203188E2F8F2F902F9F2F6A
:100F2000831603133E08803AA70080302702031D72
:100F30009B2F43083D0203189E2F9F2F9F2F0330A6
:100F4000831603133105A70000303205A8002708D7
:100F500028040319AC2FAD2FB72F2D30A700200880
:100F600084008317211C8313270880007429013013
:100F7000A207FF30220784000A168A1500200A12F1
:100F80008A11A7002708C3004308031DC82FC92FD3
:100F90006529200884008317211C83138001080021
:100FA000831603130A168A1102200A128A11EA0014
:100FB0000A168A1103200A128A11EB000A168A11F6
:100FC00004200A128A11EC000A168A1105200A125E
:100FD0008A11ED00831790308400A4300A168A1518
:100FE000E5230A128A118313C4308400E0300A1604
:100FF0008A15E5230A128A1183010A168A11062826
:10100600730872047104700403190A280B280D284A
:101016008030F3060800F00083160313981C14288A
:1010260015280F28700883120313990008008312ED
:101036000313A101F81F202821282828F709F809F9
:10104600F70A0319F80AA101A10AFA1F2B282C286E
:101056003528F909FA09F90A0319FA0A0130FB00D9
:101066007B08A106A201A3017708780403193C288E
:101076003D287428A001A00A4B2801300310F70D63
:10108600F80DFF3E031D41280130FB007B08A00739
:10109600F81F4E284F28402801300310A20DA30D3B
:1010A600FF3E031D502878087A02031D5C28770846
:1010B6007902031C5F28602867287708F9027808F8
:1010C600031CFA03FA02221401300310F80CF70C81
:1010D600FF3E031D68280130A002031D73287428F3
:1010E6004F2821080319782879287E28A209A30900
:1010F600A20A0319A30A2308F8002208F700080029
:101106007008F8007108F9007208FA000310790DEA
:101116007A0DFB007B0883120313A5002508031D27
:10112600952896289F280030F3000030F200003002
:10113600F1000030F0003F297408F8007508F90046
:101146007608FA000310790D7A0DFB007B08A400DF
:101156002408031DAF28B028B1289628F117FF30C0
:10116600F005FF30F1050030F205F517FF30F40504
:10117600FF30F5050030F6050030A3000030A20070
:101186000030A1000030A0007F30A502983024076F
:10119600F8007808A5021830F8007808A400013095
:1011A600F8000310A00DA10DA20DA30DF80BD42875
:1011B60076087202031DE52875087102031DE528ED
:1011C60074087002031CE828E928F4287408F00261
:1011D6007508031C750FF1027608031C760AF202E5
:1011E600201401300310F00DF10DF20DFF3E031D2A
:1011F600F5280130A402031D01290229D228A51FC2
:101206000529062920292508803A973E03180C2926
:101216000D290E29962801300310A30CA20CA10C4F
:10122600A00CFF3E031D0F290130F8007808A50722
:10123600031D1E291F290E29372918302502031CD4
:1012460025292629322996280130F8000310A00DF9
:10125600A10DA20DA30DF80B29290130A502250821
:10126600031D3629372927292308F3002208F2000F
:101276002108F1002008F000080083120313D000B3
:10128600D01F46294729F42AD009D00A5008803AA7
:10129600123E031C4F295029382A0A30F700003025
:1012A600F8005008F200F301F21BF3036430F0007B
:1012B6000030F1000A168A15E5250A128A1571080A
:1012C600FA007008F9000A128A151A200A128A15FD
:1012D600770883120313C20001300310C20DFF3ECC
:1012E600031D70290310420D593E84000A168A1503
:1012F60000200A128A15C3000A168A1500200A124F
:101306008A15C4000A168A1500200A128A15C50015
:101316000A168A1500200A128A15C6004608A70072
:101326004508A6004408A5004308A4006430F70059
:101336000030F8005008F900FA01F91BFA030A1206
:101346008A151A200A128A15770883120313C70012
:1013560001300310C70DFF3E031DAC290310470DD6
:101366007D3E84000A168A1500200A128A15C800D6
:101376000A168A1500200A128A15C9000A168A1545
:1013860000200A128A15CA000A168A1500200A12B7
:101396008A15CB004B08AB004A08AA004908A900E9
:1013A6004808A8000A128A159F240A128A15831271
:1013B60003132708CF002608CE002508CD002408F1
:1013C600CC000A30F0000030F1005008F200F301C2
:1013D600F21BF3030A168A15E5250A128A15700808
:1013E60083120313C20001300310C20DFF3E031D1A
:1013F600F7290310420D353E84000A168A1500208F
:101406000A128A15C3000A168A1500200A128A15BE
:10141600C4000A168A1500200A128A15C5000A1683
:101426008A1500200A128A15C6004608A700450834
:10143600A6004408A5004308A4004F08AB004E08C8
:10144600AA004D08A9004C08A8000A128A159F2474
:101456000A128A15831203132708C1002608C00042
:101466002508BF002408BE009E2C5008803A753E11
:10147600031C3E2A3F2AC72A0A30F0000030F1003A
:101486005008F200F301F21BF3030A168A15E5254C
:101496000A128A15700883120313C2000130031062
:1014A600C20DFF3E031D522A0310420D353E840035
:1014B6000A168A1500200A128A15C3000A168A150A
:1014C60000200A128A15C4000A168A1500200A127C
:1014D6008A15C5000A168A1500200A128A15C60042
:1014E6004608A7004508A6004408A5004308A4002E
:1014F6000A30F7000030F8005008F900FA01F91B2D
:10150600FA030A128A151A200A128A157708831214
:101516000313C70001300310C70DFF3E031D8E2ABB
:101526000310470D593E84000A168A1500200A1238
:101536008A15C8000A168A1500200A128A15C900DB
:101546000A168A1500200A128A15CA000A168A1572
:1015560000200A128A15CB004B08AB004A08AA00E5
:101566004908A9004808A8000A128A159F240A12E9
:101576008A15831203132708C1002608C000250810
:10158600BF002408BE009E2C5008C2000130031084
:10159600C20DFF3E031DCA2A0310420D353E8400CC
:1015A6000A168A1500200A128A15C3000A168A1519
:1015B60000200A128A15C4000A168A1500200A128B
:1015C6008A15C5000A168A1500200A128A15C60051
:1015D6004608C1004508C0004408BF004308BE00D5
:1015E6009E2C5008803A123E031CFA2AFB2AE32B53
:1015F6000A30F7000030F8005008F200F301F21B41
:10160600F3036430F0000030F1000A168A15E52570
:101616000A128A157108FA007008F9000A128A156A
:101626001A200A128A15770883120313C2000130A2
:101636000310C20DFF3E031D1B2B0310420D253E5A
:1016460084000A168A1500200A128A15C3000A1693
:101656008A1500200A128A15C4000A168A15002067
:101666000A128A15C5000A168A1500200A128A155A
:10167600C6004608A7004508A6004408A50043087A
:10168600A4006430F7000030F8005008F900FA01B1
:10169600F91BFA030A128A151A200A128A15770804
:1016A60083120313C70001300310C70DFF3E031D4D
:1016B600572B0310470D493E84000A168A15002051
:1016C6000A128A15C8000A168A1500200A128A15F7
:1016D600C9000A168A1500200A128A15CA000A16B7
:1016E6008A1500200A128A15CB004B08AB004A085F
:1016F600AA004908A9004808A8000A128A159F24CA
:101706000A128A15831203132708CF002608CE0073
:101716002508CD002408CC000A30F0000030F10086
:101726005008F200F301F21BF3030A168A15E525A9
:101736000A128A15700883120313C20001300310BF
:10174600C20DFF3E031DA22B0310420D013E840075
:101756000A168A1500200A128A15C3000A168A1567
:1017660000200A128A15C4000A168A1500200A12D9
:101776008A15C5000A168A1500200A128A15C6009F
:101786004608A7004508A6004408A5004308A4008B
:101796004F08AB004E08AA004D08A9004C08A80047
:1017A6000A128A159F240A128A1583120313270820
:1017B600C1002608C0002508BF002408BE009E2CD4
:1017C6005008803A753E031CE92BEA2B722C0A302E
:1017D600F0000030F1005008F200F301F21BF303B1
:1017E6000A168A15E5250A128A157008831203134C
:1017F600C20001300310C20DFF3E031DFD2B031076
:10180600420D013E84000A168A1500200A128A1526
:10181600C3000A168A1500200A128A15C4000A1681
:101826008A1500200A128A15C5000A168A15002094
:101836000A128A15C6004608A7004508A6004408ED
:10184600A5004308A4000A30F7000030F80050084D
:10185600F900FA01F91BFA030A128A151A200A126C
:101866008A15770883120313C70001300310C70DCA
:10187600FF3E031D392C0310470D253E84000A1632
:101886008A1500200A128A15C8000A168A15002031
:101896000A128A15C9000A168A1500200A128A1524
:1018A600CA000A168A1500200A128A15CB004B08B0
:1018B600AB004A08AA004908A9004808A8000A126D
:1018C6008A159F240A128A15831203132708C1005A
:1018D6002608C0002508BF002408BE009E2C50081C
:1018E600C20001300310C20DFF3E031D752C03100C
:1018F600420D013E84000A168A1500200A128A1536
:10190600C3000A168A1500200A128A15C4000A1690
:101916008A1500200A128A15C5000A168A150020A3
:101926000A128A15C6004608C1004508C0004408C8
:10193600BF004308BE00080083120313270880393E
:10194600AC002C08B1002708AC002C07AD002D0810
:10195600B700A61FAF2CB02CB12C371437080319CB
:10196600B52CB62CC52C370A031DBA2CBB2CC32CA0
:101976000030A7000030A6000030A5000030A4000B
:10198600A617CD2C0030A7000030A6000030A50019
:101996000030A4002B088039AC002C08B1062B08B7
:1019A600AC002C07AD002D08B600AA1FDB2CDC2CE2
:1019B600DD2C361436080319E12CE22CF12C360AFC
:1019C600031DE62CE72CEF2C0030AB000030AA00FC
:1019D6000030A9000030A800AA17F92C0030AB008F
:1019E6000030AA000030A9000030A800360803190C
:1019F600FD2CFE2C032D3708031D022D032D0C2D67
:101A06000030A7000030A6000030A5000030A4007A
:101A1600FF2F2408AC002C08F0002A080A168A15A5
:101A26003F240A128A15710883120313BD00700839
:101A3600BC003C08AC00AD01AE01AF012F08B500FB
:101A46002E08B4002D08B3002C08B2003D08AC00E7
:101A5600AD01AE01AF012F08BB002E08BA002D085C
:101A6600B9002C08B8002508AC002C08F00029089D
:101A76000A168A153F240A128A157108831203135F
:101A8600BD007008BC003C08AC00AD01AE01AF0162
:101A96002C08B2072D0803110318013E0319542D13
:101AA600B3072E0803110318013E03195B2DB40773
:101AB6002F0803110318013E0319622DB5073D08CF
:101AC600AC00AD01AE01AF012C08B8072D0803111B
:101AD6000318013E0319702DB9072E0803110318C8
:101AE600013E0319772DBA072F0803110318013E8B
:101AF60003197E2DBB072608AC002C08F000280829
:101B06000A168A153F240A128A15710883120313CE
:101B1600BD007008BC003C08AC00AD01AE01AF01D1
:101B26002C08B2072D0803110318013E03199C2D3A
:101B3600B3072E0803110318013E0319A32DB4079A
:101B46002F0803110318013E0319AA2DB5073D08F6
:101B5600AC00AD01AE01AF012C08B8072D0803118A
:101B66000318013E0319B82DB9072E0803110318EF
:101B7600013E0319BF2DBA072F0803110318013EB2
:101B86000319C62DBB070830AC000310B20DB30D08
:101B9600B40DB50DAC0BC82D2508AC002C08F00013
:101BA60028080A168A153F240A128A157108831214
:101BB6000313BD007008BC003C08AC003D08AD0036
:101BC600AE01AF012C08B2072D0803110318013E20
:101BD6000319EE2DB3072E0803110318013E03194E
:101BE600F52DB4072F0803110318013E0319FC2D28
:101BF600B5072408AC002C08F00029080A168A1537
:101C06003F240A128A15710883120313BD00700857
:101C1600BC003C08AC003D08AD00AE01AF012C088D
:101C2600B2072D0803110318013E03191B2EB30733
:101C36002E0803110318013E0319222EB4072F089C
:101C460003110318013E0319292EB5070830AC000D
:101C56000310B20DB30DB40DB50DAC0B2B2E24082D
:101C6600AC002C08F00028080A168A153F240A1230
:101C76008A15710883120313BD007008BC003C0866
:101C8600AC003D08AD00AE01AF012C08B2072D082F
:101C960003110318013E0319512EB3072E08031131
:101CA6000318013E0319582EB4072F080311031811
:101CB600013E03195F2EB5072508AC002C08F0007D
:101CC6002A080A168A153F240A128A1571088312F1
:101CD6000313BD007008BC003C08AC003D08AD0015
:101CE600AE01AF012C08B8072D0803110318013EF9
:101CF60003197E2EB9072E0803110318013E031996
:101D0600852EBA072F0803110318013E03198C2EDE
:101D1600BB072608AC002C08F00029080A168A150D
:101D26003F240A128A15710883120313BD00700836
:101D3600BC003C08AC003D08AD00AE01AF012C086C
:101D4600B8072D0803110318013E0319AB2EB90776
:101D56002E0803110318013E0319B22EBA072F08E5
:101D660003110318013E0319B92EBB072608AC0060
:101D76002C08F0002A080A168A153F240A128A152A
:101D8600710883120313BD007008BC003C08AC0048
:101D96003D08AD00AE01AF0108300310AC0DAD0D2E
:101DA600AE0DAF0DFF3E031DD02E2C08B8072D0833
:101DB60003110318013E0319E12EB9072E0803117A
:101DC6000318013E0319E82EBA072F08031103185A
:101DD600013E0319EF2EBB073208AC003308AD00F5
:101DE6003408AE003508AF0018300310AF0CAE0C47
:101DF600AD0CAC0CFF3E031DF82E2C08B8072D08C1
:101E060003110318013E0319092FB9072E08031100
:101E16000318013E0319102FBA072F0803110318E0
:101E2600013E0319172FBB070830AC000310B20D93
:101E3600B30DB40DB50DAC0B192F37083607AC0032
:101E4600AD01AD0D2C08823EBC002D080318013EE5
:101E5600FF3EBD004B2F0130AC000310B80DB90D8D
:101E6600BA0DBB0DAC0B302FB51F3A2F3B2F3C2FB5
:101E760038140130AC000310B20DB30DB40DB50D1E
:101E8600AC0B3E2FFF30BC070318BD0AFF30BD0761
:101E9600BA1F4E2F4F2F2E2FB601B51F532F542F7B
:101EA600702FFF303205AC00FF303305AD00FF3038
:101EB6003405AE007F303505AF002F082E042D0403
:101EC6002C040319672F682F6B2FB601B60A702FE3
:101ED600381C6E2F6F2F702F682F36080319742F3A
:101EE600752FA62F0130B807003003180130B90747
:101EF600003003180130BA07003003180130BB0761
:101F06003B1C862F872FA62F3808AC003908AD005A
:101F16003A08AE003B08AF000130B0002F0DAF0C01
:101F2600AE0CAD0CAC0CB00B912F2F08BB002E08DD
:101F3600BA002D08B9002C08B8000130BC070318F8
:101F4600BD0A0030BD073D08803AFF0080307F02A1
:101F5600031DAF2FFF303C02031CB22FB32FBE2F41
:101F66007F3083120313BB008030BA000030B90003
:101F76000030B800F32F831203133D08803AFF00A8
:101F860080307F02031DC92F01303C020318CC2F7D
:101F9600CD2FD92F003083120313BB000030BA00B7
:101FA6000030B9000030B800B101F32F83120313DB
:101FB6003C08AC002C08B700FF30B805FF30B90567
:101FC6007F30BA050030BB05371CEA2FEB2FEC2F0C
:101FD600BA173708AC0003102C0CAD002D08BB0057
:101FE6003108AC002C08BB043B08A7003A08A60041
:0A1FF6003908A5003808A40008000F
:1020040002340034013400340A128A1103200A16FF
:102014008A110A168A15ED230A168A1183160313E8
:102024008714071500300A168A1595240A168A1192
:10203400710883160313E9007008E8003B3083122B
:102044000313A7009F30A600FF30A500E530A400CD
:10205400831603136808F0006908F100F201F30124
:1020640000300A168A1546270A168A117308831245
:102074000313AB007208AA007108A9007008A80035
:102084000A128A159F240A168A1183120313270839
:1020940083160313E3008312031326088316031322
:1020A400E20083120313250883160313E10083124D
:1020B4000313240883160313E0003C30F300233099
:1020C400F200D730F1000A30F0006308F70062082C
:1020D400F6006108F5006008F4000A168A118A21E6
:1020E4000A168A11730883160313E7007208E600C0
:1020F4007108E5007008E4009030A0000130A100F0
:10210400913083160317A400240883160313A20036
:102114006708A6006608A5006508A4006408A30073
:102124000A128A115E210A168A119030F1000130D8
:10213400F2000A168A1566240A168A1101300A1654
:102144008A1595240A168A11710883160313ED0063
:102154007008EC003D3083120313A700B830A600CA
:102164005130A500EC30A400831603136C08F00072
:102174006D08F100F201F30100300A168A154627B2
:102184000A168A11730883120313AB007208AA009B
:102194007108A9007008A8000A128A159F240A165B
:1021A4008A1183120313270883160313C7008312AB
:1021B4000313260883160313C6008312031325088A
:1021C40083160313C5008312031324088316031311
:1021D400C400D630A0000030A1009130831603174C
:1021E400A400240883160313A2004708A600460887
:1021F400A5004508A4004408A3000A128A115E2120
:102204000A168A11D630F1000030F2000A168A1537
:1022140066240A168A1183120313871812291329B4
:102224001729071D162917293429CC3083160313BF
:10223400A0000030A100993083160317A4002408DD
:1022440083160313A2000A128A115E210A168A1148
:102254005230F1005430F2000A168A1566240A1628
:102264008A11782902300A168A1595240A168A11C9
:10227400710883160313EB007008EA006A08F00083
:102284006B08F100F201F30100300A168A154627A3
:102294000A168A11730883160313CB007208CA0046
:1022A4007108C9007008C800CC30A0000030A1003B
:1022B400913083160317A400240883160313A20085
:1022C4004B08A6004A08A5004908A4004808A30032
:1022D4000A128A115E210A168A11CC30F1000030EC
:1022E400F2000A168A1566240A168A110330831628
:1022F4000317A6008A30A5005530A400A40B80293A
:10230400A50B8029A60B802914280A128A110028FB
:1023140077088039F800780883120313A40077083B
:10232400F8007807F9007908AB00F61F9A299B2971
:102334009C292B142B080319A029A129B1292B0AA4
:10234400031DA529A629AE290030F7000030F600A8
:102354000030F5000030F400F617F701B929003019
:10236400F7000030F6000030F5000030F400730888
:102374008039F8007808A4067308F8007807F90093
:102384007908AC00F21FC729C829C9292C142C08C4
:102394000319CD29CE29DE292C0A031DD229D329DC
:1023A400DB290030F3000030F2000030F10000308F
:1023B400F000F217F301E6290030F3000030F200D8
:1023C4000030F1000030F0007308720471047004EE
:1023D400031DED29EE29072A0030F7000030F6002E
:1023E4000030F5000030F4008030F6047F30F7044C
:1023F4002408F8007808F7047708F3007608F20058
:102404007508F1007408F0006C2B2B08031D0B2ACF
:102414000C2A152A0030F3000030F2000030F100DD
:102424000030F0006C2B2B08F800F9017908FB0050
:102434002C087802FA00031CFB037A087F3EA500EF
:102444007B080318013E003EA6007708A300760827
:10245400A2007508A1007408A0000030F700003045
:10246400F6000030F5000030F4000030AA0000301F
:10247400A9000030A8000030A700AC01912A2C0864
:102484000319452A462A662A0130F8000310A00DD4
:10249400A10DA20DA30DF80B482A0130F80003107A
:1024A400F40DF50DF60DF70DF80B512AAA1F5B2A52
:1024B4005C2A5D2A74140130F8000310A70DA80DDE
:1024C400A90DAA0DF80B5F2A73082302031D742AB1
:1024D40072082202031D742A71082102031D742A42
:1024E40070082002031C772A782A8D2A2A1770087C
:1024F400A0027108031C710F802A812AA1027208AC
:10250400031C720F862A872AA2027308031C730F06
:102514008C2A8D2AA3020130F8007808AC071A30FF
:102524002C02031C962A972A412A230822042104F8
:10253400200403199E2A9F2ABE2A2714BE2A01308A
:10254400F8000310F40DF50DF60DF70DF80BA32AA2
:10255400AA1FAD2AAE2AAF2A74140130F800031062
:10256400A70DA80DA90DAA0DF80BB12AFF30A507D8
:102574000318A60AFF30A607F61FC12AC22AA12AF9
:10258400AC01AA1FC62AC72AE32AFF302705F80090
:10259400FF302805F900FF302905FA007F302A05AD
:1025A400FB007B087A04790478040319DA2ADB2A0D
:1025B400DE2AAC01AC0AE32A741CE12AE22AE32AEB
:1025C400DB2A2C080319E72AE82A192B0130F4071F
:1025D400003003180130F507003003180130F60706
:1025E400003003180130F707771CF92AFA2A192B4F
:1025F4007408F8007508F9007608FA007708FB00FB
:102604000130FC007B0DFB0CFA0CF90CF80CFC0BF4
:10261400042B7B08F7007A08F6007908F50078089F
:10262400F4000130A5070318A60A0030A6072608FF
:10263400803AFF0080307F02031D222BFF302502E9
:10264400031C252B262B342BFF3083120313A500E8
:102654000030A6000030F7000030F6000030F5002E
:102664000030F400831203132608803AFF00803000
:102674007F02031D3F2B013025020318422B432BFD
:10268400502B83120313A501A6010030F70000307C
:10269400F6000030F5000030F400A40183120313A7
:1026A4002508F8007808AB002B1C592B5A2B5C2BFF
:1026B400F617602B7F30F8007808F6052B08F80031
:1026C4000310780CF9007908F7002408F80078085A
:1026D400F704FE29080083120313D1006E3051025F
:1026E400031C752B762B832C3F30A7000030A600EB
:1026F4000030A5000030A4006430F6000030F7007C
:102704005108C200C3014208F8004308F9000A1640
:102714008A15FF240A168A11760883120313C4004B
:1027240001300310C40DFF3E031D932B0310440D11
:102734007D3E84000A168A1500200A168A11C500F7
:102744000A168A1500200A168A11C6000A168A1566
:1027540000200A168A11C7000A168A1500200A16D4
:102764008A11C8004808AB004708AA004608A90017
:102774004508A8000A128A159F240A168A11831292
:1027840003132708D0002608CF002508CE0024080C
:10279400CD000A30F6000030F7005108C200C30132
:1027A4004208F2004308F3006430F0000030F10006
:1027B4000A168A15C5240A168A117108F9007008C8
:1027C400F8000A168A15FF240A168A11760883125D
:1027D4000313C40001300310C40DFF3E031DED2B91
:1027E4000310440D593E84000A168A1500200A1667
:1027F4008A11C5000A168A1500200A168A11C60015
:102804000A168A1500200A168A11C7000A168A15A4
:1028140000200A168A11C8004808A7004708A60025
:102824004608A5004508A4005008AB004F08AA00BC
:102834004E08A9004D08A8000A128A159F240A16FA
:102844008A11831203132708CC002608CB0025081D
:10285400CA002408C9000A30F0000030F100510811
:10286400C200C3014208F2004308F3000A168A15A5
:10287400C5240A168A11700883120313C400013098
:102884000310C40DFF3E031D422C0310440D353EBE
:1028940084000A168A1500200A168A11C5000A1631
:1028A4008A1500200A168A11C6000A168A15002005
:1028B4000A168A11C7000A168A1500200A168A11F8
:1028C400C8004808A7004708A6004608A500450810
:1028D400A4004C08AB004B08AA004A08A900490808
:1028E400A8000A128A159F240A168A118312031358
:1028F4002708C1002608C0002508BF002408BE0020
:10290400772D0B305102031C882C892C342D3F3039
:10291400A7000030A6000030A5000030A4000A3053
:10292400F6000030F7005108C200C3014208F80065
:102934004308F9000A168A15FF240A168A11760834
:1029440083120313C40001300310C40DFF3E031DA2
:10295400A62C0310440D593E84000A168A15002043
:102964000A168A11C5000A168A1500200A168A1149
:10297400C6000A168A1500200A168A11C7000A160C
:102984008A1500200A168A11C8004808AB004708B7
:10299400AA004608A9004508A8000A128A159F241F
:1029A4000A168A11831203132708D0002608CF00C1
:1029B4002508CE002408CD000A30F0000030F100D4
:1029C4005108C200C3014208F2004308F3000A168A
:1029D4008A15C5240A168A11700883120313C400C9
:1029E40001300310C40DFF3E031DF32C0310440DEE
:1029F400353E84000A168A1500200A168A11C5007D
:102A04000A168A1500200A168A11C6000A168A15A3
:102A140000200A168A11C7000A168A1500200A1611
:102A24008A11C8004808A7004708A6004608A50060
:102A34004508A4005008AB004F08AA004E08A9009E
:102A44004D08A8000A128A159F240A168A118312B7
:102A540003132708C1002608C0002508BF00240866
:102A6400BE00772D3F30A7000030A6000030A5003F
:102A74000030A4005108C20001300310C20DFF3E13
:102A8400031D3F2D0310420D353E84000A168A159E
:102A940000200A168A11C3000A168A1500200A1695
:102AA4008A11C4000A168A1500200A168A11C50064
:102AB4000A168A1500200A168A11C6004608AB00B9
:102AC4004508AA004408A9004308A8000A128A1568
:102AD4009F240A168A11831203132708C1002608AB
:102AE400C0002508BF002408BE0008008312031399
:102AF40055088039DA005A08E2005508DA005A0706
:102B0400DB005B08E400D41F882D892D8A2D641412
:102B1400640803198E2D8F2D9F2D640A031D932D98
:102B2400942D9C2D0030D5000030D4000030D3000B
:102B34000030D200D417D501A72D0030D5000030C5
:102B4400D4000030D3000030D20059088039DA00B4
:102B54005A08E300630862060319B12DB22DB32DA0
:102B640062175908DA005A07DB005B08E300D81F34
:102B7400BC2DBD2DBE2D631463080319C22DC32DB6
:102B8400D32D630A031DC72DC82DD02D0030D900C5
:102B94000030D8000030D7000030D600D817D90153
:102BA400DB2D0030D9000030D8000030D7000030D1
:102BB400D600640863020318E02DE12D252E621F60
:102BC400E42DE52DE92D8030DA005A08E206640888
:102BD400DA005A08E5006308DA005A08E4006508D8
:102BE400DA005A08E3005208DA005A08E5005608E9
:102BF400DA005A08D2006508DA005A08D6005308E9
:102C0400DA005A08E5005708DA005A08D3006508C4
:102C1400DA005A08D7005408DA005A08E5005808C0
:102C2400DA005A08D4006508DA005A08D8005508B2
:102C3400DA005A08E5005908DA005A08D500650890
:102C4400DA005A08D900E5016308DA00DB015B0801
:102C5400DD0064085A02DC00031CDD035D08803AD1
:102C6400FF0080307F02031D392E1A305C02031CE2
:102C74003C2E3D2E7A2E831203135508540453041C
:102C84005204031D462E482E0130492E0030DA002E
:102C94005A08E5000030D5000030D4000030D300DD
:102CA4000030D2006308DA005A08E400822E651C62
:102CB4005C2E5D2E662E6508DA0003105A0C01386E
:102CC400DB005B08E500682E0310E50C521C6B2E3C
:102CD4006C2E6D2EE5170130DA00550DD50CD40C91
:102CE400D30CD20CDA0B6F2E0130DA005A08E40749
:102CF4008312031363086402031C812E822E592E4F
:102D0400621B852E862ED12E6408031D8A2E8B2EDF
:102D1400942E0030D5000030D4000030D3000030B1
:102D2400D200FF2F5608D207570803110318013E9B
:102D340003199D2ED307580803110318013E0319E4
:102D4400A42ED407590803110318013E0319AB2E0E
:102D5400D507551CAE2EAF2E852F651CB22EB32E73
:102D6400BC2E6508DA0003105A0C0138DB005B083E
:102D7400E500BE2E0310E50C521CC12EC22EC32E3C
:102D8400E5170130DA00550DD50CD40CD30CD20C58
:102D9400DA0BC52E0130DA005A08E407852F5508EE
:102DA400803AFF005908803A7F02031DE32E580839
:102DB4005402031DE32E57085302031DE32E560845
:102DC40052020318E62EE72E3F2FFF30DA00FF30C1
:102DD400DB00FF30DC00FF30DD005608DE00570862
:102DE400DF005808E0005908E1005208DE025308E9
:102DF400031C530FFE2EFF2EDF025408031C540F36
:102E0400042F052FE0025508031C550F0A2F0B2F22
:102E1400E1025E08DA075F0803185F0F122F132F11
:102E2400DB0760080318600F182F192FDC076108EF
:102E34000318610ADD075D08D5005C08D4005B084F
:102E4400D3005A08D2008030DA005A08E206E509B5
:102E5400E50A6508031D2F2F302F4D2F0130D207AF
:102E6400003003180130D307003003180130D407B1
:102E7400003003180130D5074D2F5608D2025708E9
:102E8400031C570FD3025808031C580FD4025908C7
:102E9400031C590FD5025508540453045204031D4E
:102EA400542F552F812F6508031D592F5A2F812F19
:102EB4000030D5000030D4000030D3000030D20000
:102EC400FF2F0130DA000310D20DD30DD40DD50D30
:102ED400DA0B652FE51F6F2F702F712F5214651CAD
:102EE400742F752F782F0314E50D7A2F0310E50D39
:102EF400640803197E2F7F2F812F0130E402D41F31
:102F0400842F852F632FE301E51F892F8A2F982FA4
:102F140065087F3903198F2F902F932FE301E30A5C
:102F2400982F521C962F972F982F902F63080319D0
:102F34009C2F9D2FD12F0130D20700300318013070
:102F4400D307003003180130D407003003180130D0
:102F5400D507551CAE2FAF2FD12F5208DA005308D6
:102F6400DB005408DC005508DD000130DE005D0D97
:102F7400DD0CDC0CDB0CDA0CDE0BB92F5D08D500A4
:102F84005C08D4005B08D3005A08D200640A031911
:102F9400CC2FCD2FD12F0130DA005A08E407640A70
:102FA4000319D52FD62FDB2F6408031DDA2FDB2F4F
:102FB400E92F0030D5000030D4000030D3000030B9
:102FC400D2006408031DE72FE82FE92FE201641CF7
:102FD400EC2FED2FEF2FD417F32F7F30DA005A08A0
:102FE400D4056408DA0003105A0CDB005B08D50032
:102FF400E21FFD2FFE2FFF2FD517080018308A007F
:103004000408840A820700340034003480343F34D6
:10301400003400342034413400340034C8344234A1
:10302400003400347A344434003440341C3446349C
:1030340000345034C33447340034243474344934B1
:103044008034963418344B342034BC34BE344C347D
:1030540028346B346E344E34F9340234153450341D
:10306400EC347834AD346034CA34F23449347134D5
:103074000034003480343F34CD34CC34CC343D344B
:103084000A34D73423343C346F34123483343A341E
:103094001734B734D1343834AC34C53427343734E6
:1030A400BD343734863435349534BF34D634333470
:1030B4007734CC342B3432345F3470348934303444
:1030C400FF34E634DB342E340834E5343C341E3427
:1030D40060344234A2340D340134003400340034FA
:1030E4000A340034003400346434003400340034CE
:1030F400E83403340034003410342734003400340A
:10310400A034863401340034403442340F34003463
:1031140080349634983400340034E134F534053482
:103124000034CA349A343B3425342E343334663470
:0C31340020340D340A34003421340034FF
:1037CA0064008001840A0406031900340406E62B07
:1037DA004130831203139F008030831603139F0026
:1037EA000800803083120313E9066D08D5006C08BF
:1037FA00D4006B08D3006A08D2006908D9006808A7
:10380A00D8006708D7006608D6000A168A117825F4
:10381A000A168A15831203135508E9005408E800AA
:10382A005308E7005208E6000800F401F501701C8D
:10383A001F2C202C262C7208F4070318F50A73088B
:10384A00F50701300310F20DF30DFF3E031D272C7F
:10385A0001300310F10CF00CFF3E031D2E2C7008F2
:10386A007104031D392C3A2C1C2C7508F1007408BC
:10387A00F0000800F800F401F5017008F200F30105
:10388A007208F6007308F700781C4C2C4D2C532C48
:10389A007608F4070318F50A7708F50701300310CC
:1038AA00F60DF70DFF3E031D542C0310F80C780893
:1038BA00031D602C612C492C7508F1007408F00076
:1038CA000800F501F601822C75087107F3007608E5
:1038DA000318760A7207F400730884008317741CAD
:1038EA00831300080A128A150E200A168A15013057
:1038FA00F5070318F60A0030F60775087107F30092
:10390A0076080318760A7207F4007308840083178E
:10391A00741C83130008031D932C942C692C080033
:10392A00F40008307402031C9B2C9C2C9F2CF00181
:10393A00F101C42C0130F2007208831203139F05AF
:10394A007408F20002300310F20DFF3E031DA82C8A
:10395A000310720DF30073089F040930F200F20B92
:10396A00B42CB72C831203131F151F19BD2CBE2CA0
:10397A00BA2C1E08F100831603131E08F000080073
:10398A00700871040319CA2CCB2CFA2CF501F50A1C
:10399A00D92C01300310F00DF10DFF3E031DCF2C81
:1039AA000130F4007408F507F11FDC2CDD2CCE2C55
:1039BA0071087302031DE32C70087202031CE62CC3
:1039CA00E72CED2C7008F2027108031CF303F302D2
:1039DA0001300310F10CF00CFF3E031DEE2C0130F8
:1039EA00F502031DF92CFA2CDD2C7308F10072087C
:1039FA00F0000800FB01FC01760877040319062D84
:103A0A00072D3E2DFD01FD0A152D01300310F60D7F
:103A1A00F70DFF3E031D0B2D0130FA007A08FD0752
:103A2A00F71F182D192D0A2D01300310FB0DFC0D5F
:103A3A00FF3E031D1A2D77087902031D262D7608ED
:103A4A007802031C292D2A2D312D7608F8027708D1
:103A5A00031CF903F9027B1401300310F70CF60C6E
:103A6A00FF3E031D322D0130FD02031D3D2D3E2D6B
:103A7A00192D7C08F7007B08F60008000030700555
:103A8A00F80000307105F90080307205FA007F30C5
:103A9A007305FB007B087A0479047804031D562D0C
:103AAA00572D5F2D0030F3000030F2000030F10096
:103ABA000030F00000307405F80000307505F90098
:103ACA0080307605FA007F307705FB007B087A04A0
:103ADA0079047804031D722D732D7B2D0030F700B5
:103AEA000030F6000030F5000030F4007708730665
:103AFA00031D892D76087206031D892D7508710626
:103B0A00031D892D7408700603198C2D8D2D8F2D98
:103B1A000310902D031408007308720471047004D2
:103B2A000319982D992DDC2DF901F90AA92D0130D7
:103B3A00F8000310F00DF10DF20DF30DF80B9E2DA8
:103B4A000130F8007808F907F31FAC2DAD2D9C2D34
:103B5A0073087702031DBB2D72087602031DBB2D65
:103B6A0071087502031DBB2D70087402031CBE2D5B
:103B7A00BF2DCD2D7008F4027108031C710FF502D8
:103B8A007208031C720FF6027308031C730FF70204
:103B9A0001300310F30CF20CF10CF00CFF3E031D84
:103BAA00CE2D0130F902031DDB2DDC2DAD2D77085A
:103BBA00F3007608F2007508F1007408F0000800B6
:103BCA00F601F31FE92DEA2DF12DF209F309F20AA4
:103BDA000319F30AF601F60AF11FF42DF52DFA2D51
:103BEA00F009F109F00A0319F10A700871040319BE
:103BFA00FF2D002E2F2EF501F50A0E2E013003108F
:103C0A00F00DF10DFF3E031D042E0130F40074087F
:103C1A00F507F11F112E122E032E71087302031DD0
:103C2A00182E70087202031C1B2E1C2E222E7008DE
:103C3A00F2027108031CF303F30201300310F10CC2
:103C4A00F00CFF3E031D232E0130F502031D2E2E1C
:103C5A002F2E122E76080319332E342E392EF209FE
:103C6A00F309F20A0319F30A7308F1007208F00063
:103C7A0008000030FC000030FB000030FA00003081
:103C8A00F900730872047104700403194D2E4E2E44
:103C9A009B2EFD01FD0A5E2E0130F8000310F00D87
:103CAA00F10DF20DF30DF80B532E0130F8007808E0
:103CBA00FD07F31F612E622E512E0130F80003100A
:103CCA00F90DFA0DFB0DFC0DF80B642E7308770243
:103CDA00031D792E72087602031D792E710875026A
:103CEA00031D792E70087402031C7C2E7D2E8C2EE7
:103CFA007008F4027108031C710FF5027208031CA4
:103D0A00720FF6027308031C730FF702791401305D
:103D1A000310F30CF20CF10CF00CFF3E031D8D2E78
:103D2A000130FD02031D9A2E9B2E622E7C08F300A1
:103D3A007B08F2007A08F1007908F00008000030E8
:103D4A007005F80000307105F90080307205FA003C
:103D5A007F307305FB007B087A0479047804031D1D
:103D6A00B72EB82EC02E0030F3000030F20000301B
:103D7A00F1000030F00000307405F80000307505DD
:103D8A00F90080307605FA007F307705FB007B0862
:103D9A007A0479047804031DD32ED42EDC2E003045
:103DAA00F7000030F6000030F5000030F400F31F91
:103DBA00DF2EE02E042F0030F8000030F90000302A
:103DCA00FA008030FB007008F8027108031C710FBA
:103DDA00EF2EF02EF9027208031C720FF52EF62E42
:103DEA00FA027308031C730FFB2EFC2EFB027B08DE
:103DFA00F3007A08F2007908F1007808F000F71F5A
:103E0A00072F082F2C2F0030F8000030F90000305F
:103E1A00FA008030FB007408F8027508031C750F5D
:103E2A00172F182FF9027608031C760F1D2F1E2F45
:103E3A00FA027708031C770F232F242FFB027B0833
:103E4A00F7007A08F6007908F5007808F40080305F
:103E5A00F3068030F70677087302031D3E2F7608B3
:103E6A007202031D3E2F75087102031D3E2F74084E
:103E7A0070020318412F422F442F0310452F0314B9
:103E8A000800F800780803194B2F4C2F602FF31FF6
:103E9A004F2F502F602F7009FA007109FB00720929
:103EAA00FC007309FD00FA0A0319FB0A0319FC0A4C
:103EBA000319FD0A682F7308FD007208FC007108D7
:103ECA00FB007008FA007308720471047004031D81
:103EDA006F2F702F792F0030F3000030F20000307E
:103EEA00F1000030F000FF2F9630F4007408F9005A
:103EFA008B2F0130F4007408F90701300310FD0C10
:103F0A00FC0CFB0CFA0CFF3E031D832FFE307D05D3
:103F1A00031D902F912F7E2FAD2F0130F4007408CE
:103F2A00F9070130FA07003003180130FB070030A7
:103F3A0003180130FC07003003180130FD07013077
:103F4A000310FD0CFC0CFB0CFA0CFF3E031DA52F05
:103F5A00FF307D05031DB22FB32F922FBF2F0130E3
:103F6A00F9020130F4000310FA0DFB0DFC0DFD0DF2
:103F7A00F40BB82FFC1BC22FC32FC92F02307902B2
:103F8A000318C82FC92FB42F7918CC2FCD2FD52FAE
:103F9A00FF30FA05FF30FB057F30FC05FF30FD05D9
:103FAA000310F90C7908F400F501F601F70118304D
:103FBA000310F40DF50DF60DF70DFF3E031DDD2F71
:103FCA007408FA047508FB047608FC047708FD04F3
:103FDA0078080319F12FF22FF72FF31FF52FF62F79
:103FEA00F72FFD177D08F3007C08F2007B08F1002B
:063FFA007A08F000080047
:02400E007A3FF7
:00000001FF
